:020000040000FA
:030000000200E318
:030013000206D40E
:03003300020606BC
:03003B0002073089
:03006B000204E6A6
:03007B0002057605
:1000830002069600000080FB120113B90003020070
:10009300CDE4900301783779038002F0A3D8FCD92B
:1000A300FA900537AA82AB839001167815790180FF
:1000B30015E493A3AC82AD838A828B83F0A3AA82D7
:1000C300AB838C828D83D8E9D9E775825775830E0C
:1000D30074001200F575828675830074001200F5B2
:1000E30075D00075813F751001751103759F00026E
:1000F300008BC09FF59FE473D09F22D083D082C032
:100103009FE493C0E0740193C0E0740293F59F22CF
:10011300790122FF00000000000000000000000041
:1001230000000000C201001200FE9707001200FE4B
:100133003E08001200FE9F08001200FEBC090012D8
:1001430000FE450A001200FEE10A001200FEF10A59
:10015300001200FE9A0B001200FE7E0F001200FE3A
:10016300480F001200FE980F001200FE9D0F0012B0
:1001730000FE0C0F001200FE1C0F001200FEAE0B5F
:10018300001200FEDD0B001200FEE20B001200FE67
:10019300F80B001200FE0F0C001200FE260C0012DA
:1001A30000FE520C001200FE760C001200FE870CBB
:1001B300001200FE900C001200FE990C001200FECB
:1001C300AE0C001200FEC30C001200FEE20C001283
:1001D30000FEF50C001200FE020E001200FE3C0EA3
:1001E300001200FEC60E00E49366701308740193B8
:1001F30066700C0874029366700508740393662294
:10020300C3E4939608740193960874029396087452
:1002130003939622E0FAA3E0FBA3E0FCA3E0FD2214
:10022300EAF0A3EBF0A3ECF0A3EDF022CAC0E0E602
:10023300F0A308DAFAD0E0FA22700422600D18C69F
:10024300C333C608C633C6D5E0F41822C0D0251080
:1002530010AF08F510500205118008F51050020583
:1002630011D2AFD0D0222510F58210AF08F510407F
:100273000215118008F51040021511D2AF851183C4
:10028300222510F582E43511F58322E4732510C588
:1002930082C0E0E51134FFC583C0E0E510C3958259
:1002A30024F810AF08858311858210800885831197
:1002B300858210D2AFCEF0A3E520F0A37808E6083C
:1002C300F0A3DEFAEFF0A3E58124FAF8E608F0A341
:1002D300E608F0A3E608F0A30808E608F0A3E6089A
:1002E300F0A315811581D0E0FED0E0F815811581CA
:1002F3001581E8C0E0EEC0E022851183851082E01D
:10030300A3FEE0A3F5207808E0A3F608DFFAE0A354
:10031300FFE0A3C0E0E0A3C0E0E0A3C0E0E0A3C02F
:10032300E0E0A3C0E010AF08858210858311800848
:10033300858210858311D2AFD083D0820200FBC0A7
:10034300D02510C582C0E0E51134FFC583C0E0E5C8
:1003530010C3958224F310AF088583118582108022
:1003630008858311858210D2AFC8F0A3E9F0A3EA10
:10037300F0A3EBF0A37908E709F0A3D8FAECF0A314
:10038300EDF0A3EEF0A3EFF0A3D0E0F0A3D0E0F004
:10039300A3D0E0F0A3E520F0A3E5F0F0A3228511BC
:1003A30083851082E0C0E0A3E0F9A3E0FAA3E0FBB9
:1003B300A37808E0F608A3DFFAE0FCA3E0FDA3E0DE
:1003C300FEA3E0FFA3E0C0E0A3E0C0E0A3E0F5D01C
:1003D300A3E0F520A3E0A3F5F010AF088583118512
:1003E30082108008858311858210D2AFD082D0839A
:1003F300D0E0F8D0E03274028000C0E0F4041202CE
:1004030069D0E012022F22D083D082ECC0E0EDC08D
:10041300E0EEC0E0EFC0E0E493A3FCE493A3FDE4CB
:1004230093A3FEE493A3FFEF4E4D4C601512048695
:10043300EC24FFFCED34FFFDEE34FFFEEF34FFFF51
:1004430080E5E493A3FCE493A3FDE493A3FEE49388
:10045300A3FFEF4E4D4C60151204C3EC24FFFCEDDB
:1004630034FFFDEE34FFFEEF34FFFF80E5D0E0FF05
:10047300D0E0FED0E0FDD0E0FCE493A3C0E0E49341
:10048300C0E022C0E0C0F088F0120203A8F04007E9
:100493001201EAA8F0701AA3A3A3A3120203A8F0FF
:1004A300A3A3A3A34013D0F0D0E0D0E0D0E0020494
:1004B30070A3A3A3A3A3A3A3A3A3A3D0F0D0E022D9
:1004C300C0E0C0F088F01201EAA8F0A3A3A3A370D0
:1004D3000BD0F0D0E0D0E0D0E0020470A3A3D0F0C2
:1004E300D0E022C0E074F1120342C2C5E589607E08
:1004F3007E008074750801750900EE780812023CCD
:10050300E508AF08E5895F605EEEF87900E875F00D
:1005130002A4C8AAF075F000A42AFA75F002E9A4AF
:100523002AF974FD28F582740339F583E0F8A3E012
:10053300F9E849602EEEF87900E875F002A4C8AA3C
:10054300F075F000A42AFA75F002E9A42AF974FD03
:1005530028F582740339F583E0F8A3E0F5838882F4
:1005630012028EEFF452890EEEC3940840867F0286
:100573000203A1C0E074F1120342C2EBE58A607E7C
:100583007E008074750801750900EE780812023C3C
:10059300E508AF08E58A5F605EEEF87900E875F07C
:1005A30002A4C8AAF075F000A42AFA75F002E9A41F
:1005B3002AF9740D28F582740439F583E0F8A3E071
:1005C300F9E849602EEEF87900E875F002A4C8AAAC
:1005D300F075F000A42AFA75F002E9A42AF9740D63
:1005E30028F582740439F583E0F8A3E0F583888263
:1005F30012028EEFF4528A0EEEC3940840867F02F5
:100603000203A1C0E074F1120342C2E8E58B607EED
:100613007E008074750801750900EE780812023CAB
:10062300E508AF08E58B5F605EEEF87900E875F0EA
:1006330002A4C8AAF075F000A42AFA75F002E9A48E
:100643002AF9741D28F582740439F583E0F8A3E0D0
:10065300F9E849602EEEF87900E875F002A4C8AA1B
:10066300F075F000A42AFA75F002E9A42AF9741DC2
:1006730028F582740439F583E0F8A3E0F5838882D2
:1006830012028EEFF4528B0EEEC3940540867F0266
:100693000203A1C0E074F2120342A2AFE433FEC22C
:1006A300AFE5E9A2E65020900427E0F8A3E0F9E8DB
:1006B30049600E900427E0F8A3E0F58388821202D4
:1006C3008E759B0053E9BFEEA2E092AF7F01020358
:1006D300A1C0E0C0D0E8C0E0E9C0E0C082C083E5CB
:1006E300C1C0E09004AAE0F87900742928F5827467
:1006F3000439F583D0E0F09004A9E0F89004AAE06F
:10070300687006E5959004ABF09004AAE02401908C
:1007130004AAF0C3948040069004AA7400F0D08326
:10072300D082D0E0F9D0E0F8D0D0D0E032C0E0C041
:10073300D0E8C0E0C008C009C082C08390052CE0A7
:10074300F890052DE068700B539AFB90052E740109
:10075300F08031C2E990052CE0F50874012508907A
:10076300052CF075090074AC2508F582740435096D
:10077300F583E0F5C190052CE0C394804006900515
:100783002C7400F0D083D082D009D008D0E0F8D008
:10079300D0D0E03274F7120290E9FEEAF8EBF9E800
:1007A300FAE9FB740B2E8A828B83F0900308E0F83E
:1007B300A3E0F5838882A3A3A3A3A3E060067861E3
:1007C3007988800478417988E88A828B83A3F0E46E
:1007D300E9F88A828B83A3A3F0900301E08A828BDA
:1007E30083A3A3A3F0900308E0F8A3E0F583888232
:1007F300A3A3E0F8A3E0F98A828B83A3A3A3A3E8CE
:10080300F0A3E9F08A828B83A3A3A3A3A3A3ECF0B1
:10081300A3EDF0900308E0F8A3E0F5838882E0F805
:10082300A3E0F98A828B83A3A3A3A3A3A3A3A3E82F
:10083300F0A3E9F0790A7F010202FC74F21202903C
:10084300ECFEEDFF8908A908EAFCEBFD7A0A7B03BD
:1008530012012AE9FB7A0080348A0A750B00EE251F
:100863000AF582EF350BF583E0C0E08B0A750B00C8
:100873008A0C750D00E50A250CF8E50B350DF974A6
:100883000A28F582740339F583D0E0F00AEAC395A8
:100893000840C6EB2508F97F060202FC74F7120232
:1008A300907E7D7F031201BA1201667901EEFAEFA1
:1008B300FB1201A28E828F83E0C2E7F08E828F83C8
:1008C300E0640570528E828F83E0F97A7E7B031297
:1008D30001A28E828F83A3E0A2E55004D2F08002AE
:1008E300C2F0A2F0E43390053FF078817903888267
:1008F3008983A3E0A2E740030209B18E828F83A319
:10090300A3A3E0F8900301E06860030209B1900338
:10091300027401F00209B18E828F83E024F5900501
:100923003CF08E828F83E0F97A7E7B031201A28EE4
:10093300828F83A3E0A2E55004D2F08002C2F0A22A
:10094300F0E43390053FF08E828F83A3A3A3A3A388
:10095300A3A3A3E0F8A3E0F9900538E8F0A3E9F036
:1009630090053D7487F0A37403F090053CE0F833E1
:1009730095E0F990053DE028F8A3E039F9888289EC
:1009830083E0900540F088828983A3E0A2E75012B8
:100993008E828F83A3E054DF644170069005417417
:1009A30001F08E828F83A3A3A3E0900537F0120199
:1009B3006C1201C07F010202FC74F7120290EAFE7E
:1009C300EBFF12017EE9640170047901806F12016B
:1009D3006C900308EEF0A3EFF090053D7400F0A3D4
:1009E3007400F09003037401F09005431202179012
:1009F3000304120223900308E0F8A3E0F58388823E
:100A0300A3A3A3A3E0F912018A900308E0F8A3E0EB
:100A1300F5838882E0FAA3E0FB120190900308E0DB
:100A2300F8A3E0F5838882A3A3E0FAA3E0FB120115
:100A3300967A367B011201C612016679007F0102A4
:100A430002FC74F4120290EAFEEBFF8C0A8D0B8910
:100A530008900303E070031201AEE508C3946750E6
:100A63000585080980037509678509081201CC12F9
:100A730001BAA908AC0AAD0BEEFAEFFB120130E99B
:100A8300F97A0A7B0312019C1201C01201A8E960E2
:100A9300027E01900308E0F8A3E0F5838882A3A314
:100AA300A3A3A3E0601C9003027400F07A4A7B02C4
:100AB300120178900302E06004740080027401FE66
:100AC30080027E00900303E070031201B4EE70070E
:100AD300900301E02401F0EEF97F040202FCC082DE
:100AE300C083900541E0F9D083D0820200FB74F209
:100AF3001202908A0A8B0BECFEEDFF740E12028435
:100B0300E0F508A3E0F50912016C90053CE0F83329
:100B130095E0F9C3E89EE99F500D90053CE0F50C84
:100B23003395E0F50D80048E0C8F0D780C1203F9CC
:100B330090053DE0FCA3E0FDAA0AAB0B1201E474AF
:100B43000212024FE50845096026120184E9F50AFD
:100B5300900540E0F83395E0F9750B00E8C3950A7A
:100B6300F8E9950BF9850882850983E8F0A3E9F094
:100B73009005417400F012016690053CE0F833954E
:100B8300E0F9C3E89EE99F500790053CE0F9800235
:100B9300EEF97F060202FCC082C083900303740156
:100BA300F01201AED083D0820200FBC082C08390DA
:100BB3006189E04460F090619074D5F09061FA74BB
:100BC30009F09061B27415F09061AE7400F01201F7
:100BD300C07900D083D0820200FB79490200FBC0B8
:100BE30082C08375F005E9A424D490618FF0D0838B
:100BF300D0820200FBC082C083EA906174F0E4EB10
:100C0300FA906175F0D083D0820200FBC082C0836A
:100C1300EA906172F0E4EBFA906173F0D083D082D2
:100C23000200FB74F612029075E1EE7591FD7800F7
:100C330080138808750900EA2508F582EB3509F564
:100C430083E0F5D908E8C39940E87F020202FCC0BB
:100C530082C0838011E5D98A828B83F08A828B8359
:100C6300A3AA82AB8319E9C3940150E9D083D0824C
:100C73000200FB75E1E9E591A2E150FA7591FD7976
:100C8300000200FB75E1EC75E1E30200FB75E1EFA7
:100C930075E1EC0200FBC082C0839061A3E0C2E671
:100CA300F0539AFED083D0820200FBC082C08390AF
:100CB30061A3E0D2E6F0439A01D083D0820200FB25
:100CC300C082C083A2AFE433F8C2AF900427EAF036
:100CD300A3EBF0E8A2E092AFD083D0820200FBC086
:100CE30082C083906193E0542270F8D083D0820253
:100CF30000FB74F41202908A088B098C0A8D0B5343
:100D0300F1FE43F30C53F2F375868075C4807808C3
:100D130012040A000000000C000000B00400006888
:100D23000D60090000700DC0120000780D802500D1
:100D330000800D40380000880D004B0000900D80AE
:100D4300700000980D00960000A00D00E10000A8BF
:100D53000D002C0100B00D00C20100B80D0084038A
:100D630000C00DC80D75C23B75C505805E75C23BDD
:100D730075C506805675C23B75C507804E75C23B67
:100D830075C508804675C2D875C508803E75C23BD7
:100D930075C509803675C2D875C509802E75C23BE5
:100DA30075C50A802675C2D875C50A801E75C23BF3
:100DB30075C50B801675C2D875C50B800E75C2D864
:100DC30075C50C800675C23B75C50A75C40243869A
:100DD30040D2AA75C1009004A97400F09004AA74CB
:100DE30000F090052C7400F090052D7400F0900431
:100DF300AB7400F090052E7400F07F040202FCC077
:100E030082C0839005337488F0A37488F09005350D
:100E1300740BF09005317415F0A37410F09005363F
:100E23007401F07A317B0512013CE9640160F4122C
:100E33000154D083D0820200FB53F4FE43FE0153DE
:100E4300F5FE43FF0153F4FB53FEFB53F6FB53F74D
:100E5300BF0200FB12015A1201D81201DEA2924016
:100E6300237A147B00120178A2924018A29250FCBC
:100E730090052F7402F079017C2F7D057ACA7BA33C
:100E8300120142E9120148E960D3E4F508F5097853
:100E9300081203F97C017D007A307B0512014E7440
:100EA3000212024FE9900530E0640270B0D2F0A262
:100EB3009030F001B39290D2F0A2A030F001B3923F
:100EC300A0809A74F6120290740A120284E0FEA3C0
:100ED300E0FFEAF8EBF980188C828D83E088828941
:100EE30083F0A3A882A9838C828D83A3AC82AD8374
:100EF3008E088F09E50824FF1EE50934FFFFE50886
:100F0300450970D47F020202FCC082C083790012BB
:100F13000160D083D0820200FBEBC313FBEA13FA18
:100F2300EAF8EBF9E824FFFAE934FFFBE849601239
:100F330000000000000000000000000000000000AE
:100F430080DE0200FBE5C65480F853BEFBE59DA29C
:100F5300E550FAE59DA2E240F4007401697007745C
:100F63004948F5C68005E9700288C6E5C6F8E59EDE
:100F7300FAE86A70F943BE040200FBC082C0831220
:100F830001729005471202171201D2120166D08333
:0F0F9300D0820200FBD2AF0200FBC2AF0200FB14
:04000005000000E314
:00000001FF
